{
  "contractName": "Shop",
  "abi": [
    {
      "inputs": [],
      "payable": false,
      "stateMutability": "nonpayable",
      "type": "constructor"
    },
    {
      "constant": false,
      "inputs": [],
      "name": "buyApple",
      "outputs": [],
      "payable": true,
      "stateMutability": "payable",
      "type": "function"
    },
    {
      "constant": true,
      "inputs": [],
      "name": "getMyApples",
      "outputs": [
        {
          "internalType": "uint16",
          "name": "",
          "type": "uint16"
        }
      ],
      "payable": false,
      "stateMutability": "view",
      "type": "function"
    },
    {
      "constant": false,
      "inputs": [
        {
          "internalType": "uint256",
          "name": "_applePrice",
          "type": "uint256"
        }
      ],
      "name": "sellMyApple",
      "outputs": [],
      "payable": true,
      "stateMutability": "payable",
      "type": "function"
    }
  ],
  "bytecode": "0x608060405234801561001057600080fd5b5061029c806100206000396000f3fe6080604052600436106100345760003560e01c80630bd5849314610039578063284131c71461006757806395ff3cc114610071575b600080fd5b6100656004803603602081101561004f57600080fd5b81019080803590602001909291905050506100a4565b005b61006f6101a0565b005b34801561007d57600080fd5b50610086610213565b604051808261ffff1661ffff16815260200191505060405180910390f35b6000816000803373ffffffffffffffffffffffffffffffffffffffff1673ffffffffffffffffffffffffffffffffffffffff16815260200190815260200160002060009054906101000a900461ffff1661ffff1602905060008060003373ffffffffffffffffffffffffffffffffffffffff1673ffffffffffffffffffffffffffffffffffffffff16815260200190815260200160002060006101000a81548161ffff021916908361ffff1602179055503373ffffffffffffffffffffffffffffffffffffffff166108fc829081150290604051600060405180830381858888f1935050505015801561019b573d6000803e3d6000fd5b505050565b6000803373ffffffffffffffffffffffffffffffffffffffff1673ffffffffffffffffffffffffffffffffffffffff168152602001908152602001600020600081819054906101000a900461ffff168092919060010191906101000a81548161ffff021916908361ffff16021790555050565b60008060003373ffffffffffffffffffffffffffffffffffffffff1673ffffffffffffffffffffffffffffffffffffffff16815260200190815260200160002060009054906101000a900461ffff1690509056fea265627a7a72315820b60ad23ae3eac144d10c08094e82c66edba7b986c88c2958f0d770b48a3ea22164736f6c63430005100032",
  "source": "// SPDX-License-Identifier: MIT\npragma solidity >=0.4.22 <0.9.0;\n\ncontract Shop {\n  mapping (address => uint16) myApple;\n\n  constructor() public {\n    \n  }\n\n  function buyApple() payable external {\n    myApple[msg.sender]++;\n  }\n\n  function getMyApples() view external returns(uint16) {\n    return myApple[msg.sender];\n  }\n\n  function sellMyApple(uint _applePrice) payable external {\n    uint refund = (myApple[msg.sender] * _applePrice);\n    myApple[msg.sender] = 0;\n    msg.sender.transfer(refund);\n  }\n}\n",
  "sourcePath": "/home/ethereum/Project/fruitshop/contracts/Shop.sol",
  "compiler": {
    "name": "solc",
    "version": "0.5.16+commit.9c3226ce.Emscripten.clang"
  },
  "schemaVersion": "3.4.3",
  "updatedAt": "2021-12-07T08:56:35.513Z",
  "networkType": "ethereum",
  "devdoc": {
    "methods": {}
  },
  "userdoc": {
    "methods": {}
  }
}